:100000000C945D010C947E010C947E010C947E0195
:100010000C947E010C947E010C947E010C947E0164
:100020000C947E010C947E010C947E010C947E0154
:100030000C947E010C947E010C947E010C947E0144
:100040000C947E010C947E010C947E010C947E0134
:100050000C947E010C947E010C947E010C9437026A
:100060000C947E010C947E010C947E010C947E0114
:100070000C947E010C947E010C947E010C947E0104
:100080000C947E010C947E010C947E010C947E01F4
:100090000C947E010C947E010C947E010C947E01E4
:1000A0000C947E010C947E010C947E010C947E01D4
:1000B0000C947E010C947E010C947E010C947E01C4
:1000C0000C947E010C947E010C947E010C947E01B4
:1000D0000C947E010C947E010C947E010C947E01A4
:1000E0000C947E016D037203770381038B03040478
:1000F00095039D03A503AF03B903C303D203DC0338
:100100000404E603F003FA0328042B041A041E0473
:10011000240462042F04330439043D0441044704D9
:100120004B044F046204550459045D040C943D04CF
:100130000C9424040C9481030C944B040C94F00351
:100140000C94A5030C941A040C9439040C945D04CB
:100150000C9459040C94DC030C94AF030C944104EC
:100160000C9462040C941E040C942B040C94C30392
:100170000C948B030C94D2030C942F040C9447041E
:100180000C94FA030C9433040C94B9030C944F04AC
:100190000C9477030C9428040C94E6030C946D03E0
:1001A0000C949D030C9455040C9404040C94950336
:1001B0000C94720300000A0B02090C0D0E080703D1
:1001C000040100000000000000000000000000002A
:1001D000000000000000000000000000000000001F
:1001E00012111000000000000000000000000000DC
:1001F00000000000000000000000010210202008A4
:100200000810204010204080020102010804020171
:1002100001020408102040808040201008040201E0
:100220008004020180402010080402010804020139
:1002300001020408102040800102040810204080C0
:1002400005050505070508080808020202020A0A52
:100250000808040404040101010101010101030370
:10026000030303030303040707070C0C0C0C0C0C1B
:100270000C0C0202020206060606060606060B0B18
:100280000B0B0B0B0B0B00002200250028002B0092
:100290002E003100340002010000050108010B01AD
:1002A00000002100240027002A002D003000330028
:1002B00001010000040107010A0111241FBECFEF54
:1002C000D1E2DEBFCDBF00E00CBF12E0A0E0B2E0A3
:1002D000E2E0FAE000E00BBF02C007900D92A03010
:1002E000B107D9F722E0A0E0B2E001C01D92A93029
:1002F000B207E1F70E9428020C94FF040C9400005E
:1003000061E085E00E94630461E086E00E9463048E
:1003100061E089E00C9463044F925F926F927F9248
:10032000BF92CF92DF92EF92FF920F931F93CF93E2
:10033000DF93B82E8B01EA01C901BA01601B710B72
:100340000E94CF0477FF02C06F5F7F4F6B01D5948F
:10035000C794780126010D2C000C66087708EC166E
:10036000FD062CF00D2C000CEE08FF080CC0B701A8
:100370008B2D0E944403C301B2010E94A6028FEF9D
:10038000E81AF80AECCF0C171D0754F4BE018B2DA8
:100390000E944403C701B6010E94A6022197F3CF31
:1003A000DF91CF911F910F91FF90EF90DF90CF9051
:1003B000BF907F906F905F904F900895AF92BF92E3
:1003C000CF92DF92EF92FF920F931F93CF93DF9321
:1003D000FC015B016A01E901C70163E070E00E9472
:1003E000CF047B019B01A801BE01CF010E948C01BB
:1003F0009701A801BE01C5010E948C019701A801C7
:10040000BE01C601DF91CF911F910F91FF90EF9038
:10041000DF90CF90BF90AF900C948C01EF92FF9241
:100420000F931F9388E8E82E83E1F82E00E810E090
:100430002AE030E049E050E066E070E085E090E0DE
:100440000E94DE011F910F91FF90EF900895089593
:100450000E94E2020E9427020E948001C0E0D0E0D8
:100460000E940E022097E1F30E940000F9CF1F9234
:100470000F920FB60F9211242F933F938F939F9358
:10048000AF93BF938091010290910202A091030269
:10049000B09104023091000223E0230F2D3720F4A5
:1004A0000196A11DB11D05C026E8230F0296A11DCE
:1004B000B11D209300028093010290930202A09349
:1004C0000302B09304028091050290910602A0916C
:1004D0000702B09108020196A11DB11D809305028B
:1004E00090930602A0930702B0930802BF91AF91C8
:1004F0009F918F913F912F910F900FBE0F901F9062
:1005000018953FB7F8948091050290910602A0914A
:100510000702B091080226B5A89B05C02F3F19F02D
:100520000196A11DB11D3FBFBA2FA92F982F882773
:10053000820F911DA11DB11DBC01CD0142E0660FCE
:10054000771F881F991F4A95D1F708958F929F9220
:10055000AF92BF92CF92DF92EF92FF926B017C013C
:100560000E9481024B015C01C114D104E104F10439
:1005700001F10E94CE040E948102DC01CB018819A6
:100580009909AA09BB09883E9340A105B10560F30A
:1005900021E0C21AD108E108F10888EE880E83E054
:1005A000981EA11CB11CC114D104E104F10419F777
:1005B000DBCFFF90EF90DF90CF90BF90AF909F90F8
:1005C0008F900895789484B5826084BD84B58160ED
:1005D00084BD85B5826085BD85B5816085BDEEE64B
:1005E000F0E0808181608083E1E8F0E0108280812A
:1005F00082608083808181608083E0E8F0E0808198
:1006000081608083E1EBF0E0808184608083E0EBB7
:10061000F0E0808181608083E1E9F0E080818260A8
:100620008083808181608083E0E9F0E08081816067
:100630008083E1EAF0E08081826080838081816054
:100640008083E0EAF0E0808181608083E1E2F1E094
:10065000808182608083808181608083E0E2F1E03C
:10066000808181608083EAE7F0E08081846080831C
:1006700080818260808380818160808380818068C6
:1006800080831092C10008951F93CF93DF93182F9A
:10069000EB0161E00E946304209711F460E004C064
:1006A000CF3FD10539F461E0812FDF91CF911F91C8
:1006B0000C949F04E12FF0E0EC54FE4FE4918E2F58
:1006C00090E0FC013197E231F10508F09DC08827E8
:1006D000EE58FF4F8F4F0C94E30484B5806884BDBF
:1006E000C7BD97C084B5806284BDC8BD92C08091EB
:1006F0008000806880938000D0938900C093880038
:1007000088C080918000806280938000D0938B00AD
:10071000C0938A007EC080918000886080938000B2
:10072000D0938D00C0938C0074C08091B00080681D
:100730008093B000C093B3006CC08091B000806221
:100740008093B000C093B40064C080919000806832
:1007500080939000D0939900C09398005AC08091E4
:100760009000806280939000D0939B00C0939A0089
:1007700050C080919000886080939000D0939D003D
:10078000C0939C0046C08091A00080688093A00028
:100790008091A0008F7B8093A000D093A900C0938C
:1007A000A80037C08091A00080628093A000D09301
:1007B000AB00C093AA002DC08091A00088608093F8
:1007C000A000D093AD00C093AC0023C08091200165
:1007D000806880932001D0932901C093280119C01B
:1007E00080912001806280932001D0932B01C093DF
:1007F0002A010FC080912001886080932001D0934E
:100800002D01C0932C0105C0C038D1050CF04BCF91
:1008100045CFDF91CF911F91089590E0FC01319772
:10082000E231F10508F04EC08827EC57FF4F8F4F9B
:100830000C94E304809180008F7703C08091800046
:100840008F7D80938000089580918000877FF9CF0D
:1008500084B58F7702C084B58F7D84BD0895809163
:10086000B0008F7703C08091B0008F7D8093B0007F
:100870000895809190008F7707C0809190008F7DC0
:1008800003C080919000877F8093900008958091AD
:10089000A0008F7707C08091A0008F7D03C080915A
:1008A000A000877F8093A0000895809120018F771A
:1008B00007C0809120018F7D03C080912001877F38
:1008C000809320010895CF93DF9390E0FC01E650E0
:1008D000FE4F2491FC01E05CFD4F8491882361F17F
:1008E00090E0880F991FFC01E056FD4FC591D4910F
:1008F000FC01EA57FD4FA591B491611109C09FB762
:10090000F8948881209582238883EC912E230BC054
:10091000623061F49FB7F8948881322F3095832339
:100920008883EC912E2B2C939FBF06C08FB7F89431
:10093000E8812E2B28838FBFDF91CF9108951F93DD
:10094000CF93DF93282F30E0F901EC54FE4F8491D0
:10095000F901E650FE4FD491F901E05CFD4FC491DE
:10096000CC23C1F0162F81110E940D04EC2FF0E072
:10097000EE0FFF1FEA57FD4FA591B4919FB7F89472
:10098000111104C08C91D095D82302C0EC91DE2BBC
:10099000DC939FBFDF91CF911F910895089597FB3E
:1009A000072E16F4009407D077FD09D00E94EB04BF
:1009B00007FC05D03EF4909581959F4F0895709562
:1009C00061957F4F0895EE0FFF1F881F8BBF079023
:1009D000F691E02D1994AA1BBB1B51E107C0AA1F79
:1009E000BB1FA617B70710F0A61BB70B881F991FD0
:1009F0005A95A9F780959095BC01CD010895F8947A
:020A0000FFCF26
:00000001FF
